:0C00000020C0FECFFDCFFCCFFBCFFACF1D
:10000C00F9CFF8CFF7CFF6CFF5CFF4CFF3CFF2CFC0
:10001C00F1CFF0CFEFCFEECFEDCF6400C800900161
:10002C002003F8FFFCFFFEFFFFFF010000000400AF
:10003C00040036000000F894EE27ECBBF1E0FBBFA7
:10004C00EBBFE5BF8DE0A2E0BB27ED938A95E9F706
:10005C0080E094E0A0E6ED930197E9F7EAE3F0E0A5
:10006C0085919591009761F0A591B59105901590AA
:10007C00BF01F00105900D920197E1F7FB01F0CF64
:10008C00EFE5EDBFE4E0EEBFC0E6D1E044C0AA93DB
:10009C001A93AA98000010E0183078F4E981E078FF
:1000AC0011F0A99A01C0A9980000A89A0000A8987C
:1000BC00E981EE0FE9831F5FEFCF10E0183078F481
:1000CC00EA81E07811F0A99A01C0A9980000A89AD9
:1000DC000000A898EA81EE0FEA831F5FEFCFAA9A7F
:1000EC00DAC017D10BD310E000E030E015D1E4E614
:1000FC00F0E0B3D21E2F13D1B0D20E2F10D1B2D24A
:10010C003E2F1A93A1E0C3DF0A93A2E0C0DF3A931B
:10011C00A3E0BDDF88C0EFEFE4BBE0E0E7BBE8B3F2
:10012C00E660E8BBEFEFE1BB27D1E0E0F0E0FA934B
:10013C00EA93EA93E8E7EA93A0E0B0D0E1E0EA932F
:10014C00ACE0A5DFEFEFEA93A9E0A1DFE2E0EA93F0
:10015C00ABE09DDFE3E0EA93AAE099DFE0E0EA930D
:10016C00AFE095DFA0E0B0E061D09BD13F01D301BF
:10017C00B8DFB19905C0DCD03196A7D2D9D0DCD08C
:10018C00B29905C0D5D03197A0D2D2D0D5D0D0D08D
:10019C006E167F0614F0909807C0CAD0E419F509C2
:1001AC00E615F7050CF0909AAAE0B0E0DBD0DACFB8
:1001BC00FFCFAFD01A93E0D0E03011F4E0E06BC089
:1001CC00E981FA81309769F0A5E51CD110E0B9D02E
:1001DC00ED91A983BA83AE2F15D11F5F1830B8F3F8
:1001EC0002C0ACEC0FD1E1E056C093D087D294D0D2
:1001FC00ABD011F4E0E017C0AEEB04D110E020E678
:10020C0031E03F932F932F5F3F4FF7D0AF91BF91CA
:10021C00EC931F5F1930A8F3E0E6F1E0FA93EA9350
:10022C00A9E0FAD002D26FD22696089572D01A9312
:10023C0088D0DBDFE03011F48AD02DC0E09164016E
:10024C00E295EF70E695E3701E2F7BD07DD011F414
:10025C007ED021C0A4E4D6D0E12FA6E2B0E07CD0C1
:10026C0021D280D06ED0C1DFE03011F470D013C039
:10027C0083D0E12FAEE2B0E06FD010D2A09160013C
:10028C00B0916101EA23FB23CBD142D1A0E0B0E0D5
:10029C0080E89DE36BD1188123960895AA93AB81D6
:1002AC00BC8152D011F4E0E032C0E881E295E07FED
:1002BC00EE0FEF61E883AEE4A5D0A981A3D0AA81AB
:1002CC00A1D0A8819FD0AB81BC818FDFE03011F42D
:1002DC00E0E01DC0A0916301EA81EA1751F4A091FE
:1002EC006201E981EA1729F4A0916401E881EA1717
:1002FC0011F0E0E00CC0AB81BC8126D011F4E0E041
:10030C0006C0A8E47FD0AFE0B0E02CD035D0259665
:10031C000895BA93AA930895AC81BD810895E4E63B
:10032C00E19FF001F9DFAE1BBF0BEAE0F0E00895AE
:10033C00A0E0B0E0BAD10895DF01D3DEA8EEB3E0BF
:10034C0011C0A981BA81089534DFE0300895E0E04E
:10035C00FCE36CE176EC0895F0E0EE0FFF1FEA0F82
:10036C00FB1F0895109639F080ED97E00197F1F797
:10037C00A8951197C9F70895EE27C098B89A80EC04
:10038C0093E00197F1F7B89885E28A95F1F7B09B65
:10039C0008958BEC8A95F1F7B09BE1E08CE093E04B
:1003AC000197F1F70895B89A85E08A95F1F7B89816
:1003BC008DE18A95F1F78894B0990894E79585EDCD
:1003CC008A95F1F70895E894B89A85E08A95F1F743
:1003DC0070FDB89883E28A95F1F7B09903C070FF6D
:1003EC0003C0089570FF089588EC8A95F1F7B898CA
:1003FC008DE08A95F1F76894089568E0D4DF6A95EA
:10040C00E9F708957A2F68E0EE27DDDF26F477957B
:10041C006A95D9F7E3950895EE27AA2389F08A2FD8
:10042C0068E1A881B98198E0FD917F2F7E277795AF
:10043C0008F4E627E795F6959A95B9F78A9599F712
:10044C0022960895552342F4503811F4E0FF04C06D
:10045C003196691F791F6BF050E8572711F45F93A1
:10046C0073C05F3F31F0660F000C57956795752F81
:10047C0008955F9300200AF073C06CC050E8192EE9
:10048C001522880F991F9527550F879550E8072E31
:10049C000522660F771F7527550F67950895689489
:1004AC0001C0E8945F93F2DF703818F07F3F08F4D6
:1004BC004BC056E1571BAAF4519558300EF45930E5
:1004CC0030F0EFEFFFEF6FEF7FE777F91AC0772788
:1004DC005523B9F0EE0FFF1F661F771F5A95D1F702
:1004EC0010C07727583028F0EF2FF62F672F585071
:1004FC00F9CF552331F076956795F795E7955A9591
:10050C00D1F700200AF484D05F910895689401C05B
:10051C00E894309760407040B1F0002426F07723C7
:10052C0012F4009475D0172E7EE1112032F07A95DA
:10053C00EE0FFF1F661F111CF9CFEF2FF62F612D49
:10054C005F938ADF5F910895EE27FF276627772751
:10055C005F910895EFEFFFEF6FE77FEF5F910895E5
:10056C00EFEFFFEF6FE77FE75F9108955F9386DF13
:10057C00703851F3903841F301240894791F23F417
:10058C001CF300203AF3ECCF0F921F932F933F9361
:10059C004F93112722279927689FA0018F9F302DF9
:1005AC00410D591F6B9F300D411D591F8E9F27D038
:1005BC00BF9F25D06A9F23D0BE9F1DD0AF9F1BD05D
:1005CC00AE9F110D291F391F491F591FE32FF42FFF
:1005DC00652F522F4F913F912F911F910F906623B2
:1005EC002AF0550FEE1FFF1F661F02C073954BF2CA
:1005FC0029DF5F910895100D211D391F02C0200DB8
:10060C00311D491F591F0895F195E195F04008954A
:10061C00F09560957095E195FF4F6F4F7F4F089562
:10062C006F2F660F660B762F0895EE23E1E009F02D
:10063C00EE2708950024112490E1AA0FBB1F001C83
:10064C00111C0E1A1F0A18F40E0E1F1E01C0A160F9
:10065C009A9599F7FD01D001089512D0EBDF0EF4B5
:10066C00D3DF0895E894B7FF04C0A095B095119618
:10067C006894F7FDC9DFDEDFFD010EF4C5DF0895D8
:10068C00E894F7FF02C0C0DF6894B7FF06C0A095DE
:10069C00B095119600F8039400FA08950590F49122
:1006AC00E02D0895A591B4910895119602D0FE2FD6
:1006BC001197E199FECFFF93FFB7F894AEBBBFBB88
:1006CC00E09AEDB3FFBFFF91089507D01196EF9319
:1006DC00EF2F03D0EF9111970895E19B02C0A895DD
:1006EC00FCCF9FB7F894AEBBBFBBE09A8DB3E817B5
:1006FC0019F0EDBBE29AE19A9FBF08953A932A93C1
:10070C001A930A9308953B812A81198108810895CF
:00000001FF
